:020000040800F2
:1000000000500020D5F900081DFA00081DFA00086C
:100010001DFA00081DFA00081DFA00080000000083
:100020000000000000000000000000001DFA0008B1
:100030001DFA0008000000001DFA00081BE8000877
:100040001DFA00081DFA00081DFA00081DFA000834
:100050001DFA00081DFA0008BDE80008C3E8000802
:10006000C9E80008CFE80008D5E800081DFA000834
:100070001DFA00081DFA00081DFA00081DFA000804
:100080001DFA00081DFA00081DFA00081DFA0008F4
:100090001DFA00081DFA00081DFA0008DBE8000838
:1000A0001DFA0008F9F600081DFA00080DF700080F
:1000B00011F7000825F7000839F70008F5C1000816
:1000C00001C200080DC2000819C200081DFA00088C
:1000D0001DFA000889F30008A1F30008B9F300082D
:1000E000F1E8000849EF00081DFA000800000000D0
:1000F0000000000000000000000000000000000000
:0C01000000000000000000005FF808F1A3
:10010C0010F8012B11F8013B012A28BF9A42F7D0B5
:10011C00D01A7047034613F8012B002AFBD1181A8A
:10012C000138704781F0004102E000BF83F00043CA
:10013C0030B54FEA41044FEA430594EA050F08BF76
:10014C0090EA020F1FBF54EA000C55EA020C7FEA3A
:10015C00645C7FEA655C00F0E2804FEA5454D4EBB7
:10016C005555B8BF6D420CDD2C4480EA020281EA81
:10017C00030382EA000083EA010180EA020281EAB9
:10018C000303362D88BF30BD11F0004F4FEA01310B
:10019C004FF4801C4CEA113102D0404261EB41011A
:1001AC0013F0004F4FEA03334CEA133302D05242A0
:1001BC0063EB430394EA050F00F0A780A4F101045C
:1001CC00D5F1200E0DDB02FA0EFC22FA05F2801896
:1001DC0041F1000103FA0EF2801843FA05F359417C
:1001EC000EE0A5F120050EF1200E012A03FA0EFCFB
:1001FC0028BF4CF0020C43FA05F3C01851EBE37125
:10020C0001F0004507D54FF0000EDCF1000C7EEB41
:10021C0000006EEB0101B1F5801F1BD3B1F5001F7F
:10022C000CD349085FEA30004FEA3C0C04F101049E
:10023C004FEA445212F5800F80F09A80BCF1004FC7
:10024C0008BF5FEA500C50F1000041EB045141EA49
:10025C00050130BD5FEA4C0C404141EB0101013C12
:10026C0028BFB1F5801FE9D291F0000F04BF014601
:10027C000020B1FA81F308BF2033A3F10B03B3F1D3
:10028C0020020CDA0C3208DD02F1140CC2F10C0263
:10029C0001FA0CF021FA02F10CE002F11402D8BFC1
:1002AC00C2F1200C01FA02F120FA0CFCDCBF41EA8D
:1002BC000C019040E41AA2BF01EB0451294330BD5C
:1002CC006FEA04041F3C1CDA0C340EDC04F1140439
:1002DC00C4F1200220FA04F001FA02F340EA030010
:1002EC0021FA04F345EA030130BDC4F10C04C4F156
:1002FC00200220FA02F001FA04F340EA0300294636
:10030C0030BD21FA04F0294630BD94F0000F83F47F
:10031C00801306BF81F480110134013D4EE77FEA62
:10032C00645C18BF7FEA655C29D094EA050F08BFAE
:10033C0090EA020F05D054EA000C04BF194610468F
:10034C0030BD91EA030F1EBF0021002030BD5FEAD3
:10035C00545C05D14000494128BF41F0004130BDFB
:10036C0014F580043CBF01F5801130BD01F000454F
:10037C0045F0FE4141F470014FF0000030BD7FEAC2
:10038C00645C1ABF194610467FEA655C1CBF0B46BD
:10039C00024650EA013406BF52EA033591EA030FD4
:1003AC0041F4002130BD00BF90F0000F04BF0021CC
:1003BC00704730B54FF4806404F132044FF00005FF
:1003CC004FF0000150E700BF90F0000F04BF002178
:1003DC00704730B54FF4806404F1320410F00045DE
:1003EC0048BF40424FF000013EE700BF42004FEAD9
:1003FC00E2014FEA31014FEA02701FBF12F07F4356
:10040C0093F07F4F81F06051704732F07F4208BF0C
:10041C00704793F07F4F04BF41F40021704730B513
:10042C004FF4607401F0004521F000411CE700BF5F
:10043C0050EA010208BF704730B54FF000050AE0E2
:10044C0050EA010208BF704730B511F0004502D5E3
:10045C00404261EB41014FF4806404F132045FEAE5
:10046C00915C3FF4D8AE4FF003025FEADC0C18BF8E
:10047C0003325FEADC0C18BF033202EBDC02C2F180
:10048C00200300FA03FC20FA02F001FA03FE40EA12
:10049C000E0021FA02F11444BDE600BF70B54FF016
:1004AC00FF0C4CF4E06C1CEA11541DBF1CEA1355F4
:1004BC0094EA0C0F95EA0C0F00F0DEF82C4481EA5C
:1004CC00030621EA4C5123EA4C5350EA013518BF7C
:1004DC0052EA033541F4801143F4801338D0A0FB69
:1004EC0002CE4FF00005E1FB02E506F00042E0FB16
:1004FC0003E54FF00006E1FB03569CF0000F18BF1C
:10050C004EF0010EA4F1FF04B6F5007F64F54074C3
:10051C0004D25FEA4E0E6D4146EB060642EAC62156
:10052C0041EA55514FEAC52040EA5E504FEACE2EC3
:10053C00B4F1FD0C88BFBCF5E06F1ED8BEF1004FC6
:10054C0008BF5FEA500E50F1000041EB045170BD42
:10055C0006F0004646EA010140EA020081EA030186
:10056C00B4EB5C04C2BFD4EB0C0541EA045170BD82
:10057C0041F480114FF0000E013C00F3AB8014F1FC
:10058C00360FDEBF002001F0004170BDC4F1000445
:10059C00203C35DA0C341BDC04F11404C4F12005C6
:1005AC0000FA05F320FA04F001FA05F240EA020021
:1005BC0001F0004221F0004110EBD37021FA04F657
:1005CC0042EB06015EEA430E08BF20EAD37070BD11
:1005DC00C4F10C04C4F1200500FA04F320FA05F070
:1005EC0001FA04F240EA020001F0004110EBD37072
:1005FC0041F100015EEA430E08BF20EAD37070BDE2
:10060C00C4F1200500FA05F24EEA020E20FA04F3BA
:10061C0001FA05F243EA020321FA04F001F0004169
:10062C0021FA04F220EA020000EBD3705EEA430EDA
:10063C0008BF20EAD37070BD94F0000F0FD101F009
:10064C000046400041EB010111F4801F08BF013C42
:10065C00F7D041EA060195F0000F18BF704703F080
:10066C000046520043EB030313F4801F08BF013D07
:10067C00F7D043EA0603704794EA0C0F0CEA1355C3
:10068C0018BF95EA0C0F0CD050EA410618BF52EA7D
:10069C004306D1D181EA030101F000414FF0000083
:1006AC0070BD50EA410606BF1046194652EA430691
:1006BC0019D094EA0C0F02D150EA013613D195EA05
:1006CC000C0F05D152EA03361CBF104619460AD14D
:1006DC0081EA030101F0004141F0FE4141F4700157
:1006EC004FF0000070BD41F0FE4141F4780170BD47
:1006FC0070B54FF0FF0C4CF4E06C1CEA11541DBFAC
:10070C001CEA135594EA0C0F95EA0C0F00F0A7F8AD
:10071C00A4EB050481EA030E52EA03354FEA0131DA
:10072C0000F088804FEA03334FF0805545EA1313ED
:10073C0043EA12634FEA022245EA111545EA1065B5
:10074C004FEA00260EF000419D4208BF964244F14C
:10075C00FD0404F5407402D25B084FEA3202B61A6B
:10076C0065EB03055B084FEA32024FF480104FF43F
:10077C00002CB6EB020E75EB030E22BFB61A7546B3
:10078C0040EA0C005B084FEA3202B6EB020E75EB46
:10079C00030E22BFB61A754640EA5C005B084FEAAE
:1007AC003202B6EB020E75EB030E22BFB61A75467B
:1007BC0040EA9C005B084FEA3202B6EB020E75EB86
:1007CC00030E22BFB61A754640EADC0055EA060E47
:1007DC0018D04FEA051545EA16754FEA06164FEA8A
:1007EC00C30343EA52734FEAC2025FEA1C1CC0D136
:1007FC0011F4801F0BD141EA00014FF000004FF0C3
:10080C00004CB6E711F4801F04BF01430020B4F183
:10081C00FD0C88BFBCF5E06F3FF6AFAEB5EB030C3B
:10082C0004BFB6EB020C5FEA500C50F1000041EB38
:10083C00045170BD0EF0004E4EEA113114EB5C0405
:10084C00C2BFD4EB0C0541EA045170BD41F48011D8
:10085C004FF0000E013C90E645EA060E8DE60CEAE0
:10086C00135594EA0C0F08BF95EA0C0F3FF43BAFFD
:10087C0094EA0C0F0AD150EA01347FF434AF95EAB4
:10088C000C0F7FF425AF104619462CE795EA0C0F98
:10089C0006D152EA03353FF4FDAE1046194622E765
:1008AC0050EA410618BF52EA43067FF4C5AE50EA3F
:1008BC0041047FF40DAF52EA43057FF4EBAE12E72F
:1008CC004FF0FF3C06E000BF4FF0010C02E000BF10
:1008DC004FF0010C4DF804CD4FEA410C7FEA6C5CF3
:1008EC004FEA430C18BF7FEA6C5C1BD001B050EA96
:1008FC00410C0CBF52EA430C91EA030F02BF90EA81
:10090C00020F0020704710F1000F91EA030F58BF3F
:10091C00994208BF90422CBFD8176FEAE37040F0A1
:10092C00010070474FEA410C7FEA6C5C02D150EA3F
:10093C00013C07D14FEA430C7FEA6C5CD6D152EAFA
:10094C00033CD3D05DF8040B704700BF84461046BF
:10095C0062468C461946634600E000BF01B5FFF7BE
:10096C00B7FF002848BF10F1000F01BD4DF808ED8E
:10097C00FFF7F4FF0CBF012000205DF808FB00BF5F
:10098C004DF808EDFFF7EAFF34BF012000205DF8B9
:10099C0008FB00BF4DF808EDFFF7E0FF94BF012006
:1009AC0000205DF808FB00BF4DF808EDFFF7CEFF07
:1009BC0094BF012000205DF808FB00BF4DF808ED46
:1009CC00FFF7C4FF34BF012000205DF808FB00BF17
:1009DC004FEA410C7FEA6C5C02D150EA013C0AD12F
:1009EC004FEA430C7FEA6C5C02D152EA033C02D121
:1009FC004FF0000070474FF0010070474FEA410282
:100A0C0012F5001215D211D56FF47873B3EB625254
:100A1C0012D94FEAC12343F0004343EA505311F07B
:100A2C00004F23FA02F018BF404270474FF000000D
:100A3C00704750EA013005D111F0004008BF6FF04B
:100A4C00004070474FF00000704700BF4A0011D2C1
:100A5C0012F5001211D20DD56FF47873B3EB62520C
:100A6C000ED44FEAC12343F0004343EA505323FA18
:100A7C0002F070474FF00000704750EA013002D18D
:100A8C004FF0FF3070474FF0000070474FEA4102C3
:100A9C00B2F1E04324BFB3F5001CDCF1FE5C0DD9D0
:100AAC0001F0004C4FEAC0024CEA5070B2F1004F1A
:100ABC0040EB830008BF20F00100704711F0804F1D
:100ACC0021D113F13872BCBF01F00040704741F4E2
:100ADC0080114FEA5252C2F11802C2F1200C10FAE6
:100AEC000CF320FA02F018BF40F001004FEAC123CA
:100AFC004FEAD32303FA0CFC40EA0C0023FA02F36E
:100B0C004FEA4303CCE77FEA625307D150EA013343
:100B1C001EBF4FF0FE4040F44000704701F0004013
:100B2C0040F0FE4040F40000704700BF80F00040F1
:100B3C0002E000BF81F0004142001FBF5FEA4103A9
:100B4C0092EA030F7FEA226C7FEA236C6AD04FEAA9
:100B5C001262D2EB1363C1BFD218414048404140EE
:100B6C00B8BF5B42192B88BF704710F0004F40F4A0
:100B7C00000020F07F4018BF404211F0004F41F4BC
:100B8C00000121F07F4118BF494292EA030F3FD088
:100B9C00A2F1010241FA03FC10EB0C00C3F120039B
:100BAC0001FA03F100F0004302D5494260EB40002A
:100BBC00B0F5000F13D3B0F1807F06D340084FEA95
:100BCC00310102F10102FE2A51D2B1F1004F40EB8A
:100BDC00C25008BF20F0010040EA030070474900F2
:100BEC0040EB0000013A28BFB0F5000FEDD2B0FA8F
:100BFC0080FCACF1080CB2EB0C0200FA0CF0AABFB2
:100C0C0000EBC25052421843BCBFD040184370474F
:100C1C0092F0000F81F4000106BF80F40000013255
:100C2C00013BB5E74FEA41037FEA226C18BF7FEA2C
:100C3C00236C21D092EA030F04D092F0000F08BF6E
:100C4C000846704790EA010F1CBF0020704712F055
:100C5C007F4F04D1400028BF40F00040704712F194
:100C6C0000723CBF00F50000704700F0004343F0F9
:100C7C00FE4040F4000070477FEA226216BF08462F
:100C8C007FEA23630146420206BF5FEA412390EAF2
:100C9C00010F40F4800070474FF0000304E000BFE8
:100CAC0010F0004348BF40425FEA000C08BF704799
:100CBC0043F0964301464FF000001CE050EA01025D
:100CCC0008BF70474FF000030AE000BF50EA010272
:100CDC0008BF704711F0004302D5404261EB41015F
:100CEC005FEA010C02BF84460146002043F0B64384
:100CFC0008BFA3F18053A3F50003BCFA8CF2083AA9
:100D0C00A3EBC25310DB01FA02FC634400FA02FCB1
:100D1C00C2F12002BCF1004F20FA02F243EB0200B8
:100D2C0008BF20F00100704702F1200201FA02FC1A
:100D3C00C2F1200250EA4C0021FA02F243EB02000D
:100D4C0008BF20EADC7070474FF0FF0C1CEAD05251
:100D5C001EBF1CEAD15392EA0C0F93EA0C0F6FD012
:100D6C001A4480EA010C400218BF5FEA41211ED0F0
:100D7C004FF0006343EA501043EA5111A0FB0131DC
:100D8C000CF00040B1F5000F3EBF490041EAD371B1
:100D9C005B0040EA010062F17F02FD2A1DD8B3F12D
:100DAC00004F40EBC25008BF20F00100704790F09C
:100DBC00000F0CF0004C08BF49024CEA502040EAEE
:100DCC0051207F3AC2BFD2F1FF0340EAC2507047B4
:100DDC0040F400004FF00003013A5DDC12F1190FF2
:100DEC00DCBF00F000407047C2F10002410021FA64
:100DFC0002F1C2F1200200FA02FC5FEA310040F17C
:100E0C00000053EA4C0308BF20EADC70704792F0F4
:100E1C00000F00F0004C02BF400010F4000F013A2C
:100E2C00F9D040EA0C0093F0000F01F0004C02BF27
:100E3C00490011F4000F013BF9D041EA0C018FE796
:100E4C000CEAD15392EA0C0F18BF93EA0C0F0AD09C
:100E5C0030F0004C18BF31F0004CD8D180EA0100C2
:100E6C0000F00040704790F0000F17BF90F0004F5B
:100E7C00084691F0000F91F0004F14D092EA0C0F3D
:100E8C0001D142020FD193EA0C0F03D14B0218BFD0
:100E9C00084608D180EA010000F0004040F0FE4016
:100EAC0040F40000704740F0FE4040F440007047B2
:100EBC004FF0FF0C1CEAD0521EBF1CEAD15392EA31
:100ECC000C0F93EA0C0F69D0A2EB030280EA010C21
:100EDC0049024FEA402037D04FF0805343EA1111BA
:100EEC0043EA10130CF000408B4238BF5B0042F118
:100EFC007D024FF4000C8B4224BF5B1A40EA0C00BD
:100F0C00B3EB510F24BFA3EB510340EA5C00B3EBEE
:100F1C00910F24BFA3EB910340EA9C00B3EBD10FDC
:100F2C0024BFA3EBD10340EADC001B0118BF5FEA2E
:100F3C001C1CE0D1FD2A3FF650AF8B4240EBC25057
:100F4C0008BF20F0010070470CF0004C4CEA502018
:100F5C007F32C2BFD2F1FF0340EAC250704740F467
:100F6C0000004FF00003013A37E792F0000F00F059
:100F7C00004C02BF400010F4000F013AF9D040EAD7
:100F8C000C0093F0000F01F0004C02BF490011F46B
:100F9C00000F013BF9D041EA0C0195E70CEAD15363
:100FAC0092EA0C0F08D142027FF47DAF93EA0C0F4A
:100FBC007FF470AF084676E793EA0C0F04D14B022E
:100FCC003FF44CAF08466EE730F0004C18BF31F0E0
:100FDC00004CCAD130F000427FF45CAF31F00043DA
:100FEC007FF43CAF5FE700BF4FF0FF3C06E000BF73
:100FFC004FF0010C02E000BF4FF0010C4DF804CD96
:10100C004FEA40024FEA41037FEA226C18BF7FEAA5
:10101C00236C11D001B052EA530C18BF90EA010FA7
:10102C0058BFB2EB030088BFC81738BF6FEAE17036
:10103C0018BF40F0010070477FEA226C02D15FEAD2
:10104C00402C05D17FEA236CE4D15FEA412CE1D03E
:10105C005DF8040B704700BF844608466146FFE705
:10106C000FB5FFF7C9FF002848BF10F1000F0FBDE7
:10107C004DF808EDFFF7F4FF0CBF012000205DF8E0
:10108C0008FB00BF4DF808EDFFF7EAFF34BF012065
:10109C0000205DF808FB00BF4DF808EDFFF7E0FFFE
:1010AC0094BF012000205DF808FB00BF4DF808ED4F
:1010BC00FFF7D2FF94BF012000205DF808FB00BFB2
:1010CC004DF808EDFFF7C8FF34BF012000205DF894
:1010DC0008FB00BF4FEA4002B2F1FE4F0FD34FF0B6
:1010EC009E03B3EB12620DD94FEA002343F0004389
:1010FC0010F0004F23FA02F018BF404270474FF037
:10110C000000704712F1610F01D1420205D110F0BD
:10111C00004008BF6FF0004070474FF00000704770
:10112C007BB972B90029BEBF00204FF0004106E028
:10113C0008BF00281CBF6FF000414FF0FF3000F0DB
:10114C0057B8ADF1080C6DE904CE002909DB002B72
:10115C001ADB13F081FEDDF804E0DDE9022304B0B4
:10116C007047404261EB4101002B1BDB13F074FE16
:10117C00DDF804E0DDE9022304B0404261EB4101FB
:10118C00524263EB43037047524263EB430313F049
:10119C0063FEDDF804E0DDE9022304B0404261EBBC
:1011AC0041017047524263EB430313F055FEDDF8E7
:1011BC0004E0DDE9022304B0524263EB43037047C1
:1011CC0053B94AB9002908BF00281CBF4FF0FF31A2
:1011DC004FF0FF3000F00CB8ADF1080C6DE904CE07
:1011EC0013F03AFEDDF804E0DDE9022304B07047A9
:1011FC00704700BF10B5054C237833B9044B13B1BD
:10120C000448AFF300800123237010BDB802002006
:10121C0000000000D051010808B5034B1BB1034975
:10122C000348AFF3008008BD00000000BC020020A2
:10123C00D05101082DE9F04F91B002AB83E80300C7
:10124C009DF80850002D00F0F7809DF80D407D486A
:10125C0021469DF809A09DF80AB09DF80B709DF8E9
:10126C000C600AF0D7FB32200EF0D5FB75480AF063
:10127C0003FC8146744800F01BFE0A21204600F056
:10128C0027FE724800F014FE01216E480AF05EFB46
:10129C0080464846FFF704FD4146FFF755FD019097
:1012AC00FFF7A4F88046894600F08AFE019B4FF0B8
:1012BC007C511846FFF704FF40B3654800F0F8FD79
:1012CC005EA3D3E9002340464946FFF711FA0022FA
:1012DC00604BFFF7E3F8FFF7B9FB5FFA80F8B8F162
:1012EC00640F28BF4FF064085B4800F0E1FD4046F6
:1012FC000A2100F0EDFD594800F0DAFD002C34D144
:10130C0035B10025284611B0BDE8F08F0546D7E76A
:10131C0001200AF03DFA0446414604A807F0C0FA41
:10132C0004A9204607F005F94D4800F0C1FD0A213B
:10133C00404600F0CDFD494800F0BAFDD8450DD32C
:10134C00D0452CBF052006200AF022FA04460121C4
:10135C0004A807F0A1FA204604A925E0B845D0D886
:10136C00B04594BF08200720EEE7012C26D1002DB4
:10137C00C7D102200AF00CFA8146414604A807F0B6
:10138C008FFA484604A907F0D4F8D8450FD3D045B6
:10139C002CBF09200A200AF0FBF90646214604A8B6
:1013AC0007F07AFA304604A907F0C3F8AAE7B84563
:1013BC00A7D8B04594BF0C200B20ECE7022C1BD116
:1013CC00002D9ED103200AF0E3F90446414604A8FF
:1013DC0007F066FA204604A907F0ABF8D84504D309
:1013EC00D0452CBF0D200E20AEE7B84589D8B045AE
:1013FC0094BF10200F20A7E7032C82D1002D80D1A1
:10140C0004200AF0C5F90446414604A807F048FA3E
:10141C00204604A907F08DF8D84504D3D0452CBF3D
:10142C001120122090E7B8453FF66BAFB04501D8BC
:10143C00142089E7132087E7012563E79AB1683AFE
:10144C003B19DE3FEC02002000520108BD5201089E
:10145C0008520108000059401D520108465D010860
:10146C002852010838B50AF0BDF90AF0F5F850B366
:10147C000AF0D8F838BB17480AF011FB18BB0AF071
:10148C000FFF154C2368C01A144B1B6898421AD3D3
:10149C00134D2B68032B0FD8DFE803F00216181A34
:1014AC00104B1A795979186842EA0121FFF7C2FEEC
:1014BC0010B90AF0F5FE20602A68032A02F1010334
:1014CC0008BF00232B6038BD074BEAE7074BE8E762
:1014DC00074BE6E7EC020020540400200803002030
:1014EC000C030020D4020020DA020020E0020020CD
:1014FC00E6020020102210B5044688B00DEB020065
:10150C0000210EF0C1FB2368274A934229D1274BB7
:10151C004FF400719A69264842F480429A619A69A4
:10152C0002F480420092009A9A6942F004029A6195
:10153C009B6903F004030193019B0223CDE904137F
:10154C00032304A907930BF0E1F84FF48063049391
:10155C000023174804A9CDE905330BF0D7F808B0E0
:10156C0010BD144A9342FAD1104B1148DA6904A900
:10157C0042F40032DA61DA6902F400320292029A21
:10158C009A6942F004029A619B69042203F00403F5
:10159C000393039B0223CDE90423032307930BF04E
:1015AC00B5F80823D3E700BF003801400010024013
:1015BC00000801400044004010B594B018220021EE
:1015CC000BA80EF061FB1422102400210DEB02007D
:1015DC000EF05AFB2246002101A80EF055FB022307
:1015EC0001220A93CDE90E24119300224FF46013CB
:1015FC000AA8CDE912230CF047FA20B14FF41F7161
:10160C0012480DF0A1FC0F2302244FF48062CDE9A7
:10161C0005340023214605A8CDE9073209930CF0C7
:10162C0009FC20B140F2892108480DF08DFC4FF4E3
:10163C00004301A8019403930CF0B8FC20B140F2D4
:10164C008E2102480DF080FC14B010BD35520108FB
:10165C002DE9F043AFB0FFF7AFFF4FF4E133EB48A8
:10166C00EB4AC0E9002300230C22C0E90233C0E995
:10167C0005230361C3610CF03FFE20B140F20F2142
:10168C00E4480DF061FCE14800F004FC2AAEE248AD
:10169C0000F0B8FC0AF01AF81022002130460EF0C7
:1016AC00F3FADE4B4FF400519A69DD4842F0100218
:1016BC009A619A69012502F010020192019A9A69C5
:1016CC00002442F004029A619A69022702F0040293
:1016DC000292029A9A6942F008029A619B6901226D
:1016EC0003F008030393039B0BF0ECF800224FF478
:1016FC000061CB480BF0E6F84FF400533146C84874
:10170C00CDE92A35CDE92C470BF000F8C54B314615
:10171C00C548CDE92B352A950AF0F8FF4FF4006344
:10172C003146BF48CDE92A35CDE92C470AF0EEFF0A
:10173C002246214606200AF0EFFD06200AF01EFE86
:10174C0009F0A2FF09F088FF002800F0F982B748E1
:10175C0000F0AEFB28460AF01BF880460DF110098C
:10176C00234648462A46052105F0BCFA99E80600AE
:10177C00404606F0BEFE38460AF00AF880460DF1E7
:10178C001809234648462A46052105F0ABFA99E884
:10179C000600404606F0ADFE032009F0F9FF804636
:1017AC000DF12009234648462A46052105F09AFAF0
:1017BC0099E80600404606F09CFE042009F0E8FF7C
:1017CC0080460DF12809234648462A46052105F096
:1017DC0089FA99E80600404606F08BFE052009F0D0
:1017EC00D7FF80460DF1300923464846052229468D
:1017FC0005F078FA99E80600404606F07AFE0620D5
:10180C0009F0C6FF80460DF13809234648460522EB
:10181C00294605F067FA99E80600404606F069FE8D
:10182C00072009F0B5FF80460DF1400923464846D4
:10183C000522294605F056FA99E80600404606F0BE
:10184C0058FE082009F0A4FF80460DF148092346F4
:10185C0048460522294605F045FA99E80600404617
:10186C0006F047FE092009F093FF80460DF1500960
:10187C00234648460522294605F034FA99E8060025
:10188C00404606F036FE0A2009F082FF80460DF134
:10189C005809234648460522294605F023FA99E8BB
:1018AC000600404606F025FE0B2009F071FF80462D
:1018BC000DF16009234648460522294605F012FA27
:1018CC0099E80600404606F014FE0C2009F060FF73
:1018DC0080460DF16809234648460522294605F045
:1018EC0001FA99E80600404606F003FE0D2009F0C7
:1018FC004FFF80460DF170092346484605222946C4
:10190C0005F0F0F999E80600404606F0F2FD0E20CD
:10191C0009F03EFF80460DF1780923464846052222
:10192C00294605F0DFF999E80600404606F0E1FD8E
:10193C000F2009F02DFF80460DF180092346484603
:10194C000522294605F0CEF999E80600404606F036
:10195C00D0FD102009F01CFF80460DF188092346AC
:10196C0048460522294605F0BDF999E8060040468F
:10197C0006F0BFFD112009F00BFF80460DF1900918
:10198C00234648460522294605F0ACF999E806009D
:10199C00404606F0AEFD122009F0FAFE80460DF12D
:1019AC009809234648460522294605F09BF999E8F3
:1019BC000600404606F09DFD132009F0E9FE804626
:1019CC000DF1A009234605222946484605F08AF95F
:1019DC0099E80600404606F08CFD142009F0D8FE6C
:1019EC008046234630460522294605F07BF996E8C9
:1019FC000600404606F07DFD0D4800F059FA2046E1
:101A0C0009F0B4FE0A2100F063FA13E0140400207C
:101A1C00003801403552010810030020001002402C
:101A2C00000C014000003110000801409A520108DE
:101A3C00AD520108D14800F03BFAD14800F038FA19
:101A4C00284609F093FE0A2100F042FACB4800F038
:101A5C002FFACC4800F02CFA384609F087FE0A2100
:101A6C0000F036FAC54800F023FAC74800F020FA17
:101A7C00032009F07BFE0A2100F02AFABF4800F08F
:101A8C0017FAC24800F014FA042009F06FFE0A217C
:101A9C0000F01EFAB94800F00BFA2146204609F076
:101AAC004FFEBB4E002800F0C4812846357009F06B
:101ABC005DFE7070384609F059FEB070032009F0D5
:101ACC0055FEF070042009F051FE3071B14874716C
:101ADC0000F0EEF9B04800F0EBF90A21707800F054
:101AEC00F7F9A64800F0E4F9AC4800F0E1F90A2156
:101AFC00B07800F0EDF9A14800F0DAF9A84800F050
:101B0C00D7F90A21F07800F0E3F99C4800F0D0F9FD
:101B1C00A44800F0CDF930790A2100F0D9F99748A2
:101B2C0000F0C6F90121002009F00AFE9E4C0028A5
:101B3C0000F0818101250520257009F017FE6070E9
:101B4C00062009F013FEA070072009F00FFEE070CC
:101B5C00082009F00BFE20719448657100F0A8F97B
:101B6C00924800F0A5F9924800F0A2F90A21607899
:101B7C0000F0AEF9814800F09BF98E4800F098F91E
:101B8C000A21A07800F0A4F97C4800F091F98A4869
:101B9C0000F08EF90A21E07800F09AF9774800F00D
:101BAC0087F9864800F084F920790A2100F090F931
:101BBC00724800F07DF90221002009F0C1FD804C33
:101BCC00002800F03A8101230920237009F0CEFD92
:101BDC0060700A2009F0CAFDA0700B2009F0C6FD48
:101BEC00E0700C2009F0C2FD02232071754863716E
:101BFC0000F05EF9734800F05BF9734800F058F997
:101C0C000A21607800F064F95C4800F051F96F48E3
:101C1C0000F04EF90A21A07800F05AF9574800F06C
:101C2C0047F96B4800F044F90A21E07800F050F9CC
:101C3C00524800F03DF9674800F03AF920790A2142
:101C4C0000F046F94D4800F033F90321002009F06B
:101C5C0077FD614C002800F0F28001230D202370E9
:101C6C0009F084FD60700E2009F080FDA0700F203B
:101C7C0009F07CFDE070102009F078FD0323207141
:101C8C005648637100F014F9544800F011F95448A7
:101C9C0000F00EF90A21607800F01AF9374800F0CC
:101CAC0007F9504800F004F90A21A07800F010F967
:101CBC00324800F0FDF84C4800F0FAF80A21E078C0
:101CCC0000F006F92D4800F0F3F8484800F0F0F861
:101CDC0020790A2100F0FCF8284800F0E9F80020EF
:101CEC0009F044FD00F00800002814BF0122002276
:101CFC003F4B1A7000F0AB803E4800F0D9F8002042
:101D0C0009F034FDC0F3410002283B4B00F09980F0
:101D1C00032800F09980012814BF4FF47A7240F622
:101D2C00B83236481A6000F0C3F8002009F01EFDE6
:101D3C000A21C0F3410000F021F9104800F0B8F876
:101D4C002F4800F0B5F84FF400512E4809F090FCE4
:101D5C00002009F087FC01212B4809F08FFC09F0C9
:101D6C00D5FC2A4800F0A4F80021294809F07EFF90
:101D7C00284809F078FD08214EE000BF465D0108B7
:101D8C00C0520108D3520108E6520108F952010869
:101D9C00D40200200C5301081D53010834530108D0
:101DAC005353010872530108DA02002089530108C9
:101DBC009A530108B1530108D0530108EF5301089D
:101DCC00E002002006540108175401082E540108A3
:101DDC004D5401086C540108E6020020835401089C
:101DEC0094540108AB540108CA540108E954010881
:101DFC001004002000550108080300202C55010890
:101E0C006A550108000C0140000801407C5501088E
:101E1C00A0080020EC0200200F4809F02CFD0F4810
:101E2C0000F046F80AF03CFA0D4B18602FB0BDE8F4
:101E3C00F083307076E62070BDE6207005E72070E8
:101E4C004DE741F288326CE742F2107269E70548BF
:101E5C0000F02EF871E700BFEC0200208855010855
:101E6C00540400203F55010808B54821054A06488E
:101E7C0009F01CFEBDE808400022044904480DF09E
:101E8C0061BB00BFA0080020EC0200200044004011
:101E9C0010030020014B1860704700BF580400204D
:101EAC00034600201A5C0AB10130FBE770470000C2
:101EBC0010B50446FEF72EF982B204482146BDE85F
:101ECC0010404FF47A7300680CF08FBA580400205D
:101EDC001FB5002310290CBF0B490C49024601A861
:101EEC00CDE90133ADF80C300EF074FE084B01A8AF
:101EFC001C68FFF7D5FF4FF47A7382B201A9204614
:101F0C000CF073FA04B010BD8E5501089155010800
:101F1C00580400202DE9F0470C4615461E46FFF7E5
:101F2C00C7FFDFF85490114F2544AC4210D02378F2
:101F3C00A0460F2B02D84846FFF7BAFF98F80000CE
:101F4C001021FFF7C5FF38460134FFF7B1FFECE76E
:101F5C004EB1BDE8F04706484FF47A7302220549AA
:101F6C0000680CF042BABDE8F08700BFF0680108C9
:101F7C005804002094550108016901081FB500237D
:101F8C0010290CBF0B490C49024601A8CDE90133BD
:101F9C0003930EF01FFE094B01A81C68FFF780FF8E
:101FAC004FF47A7382B201A920460CF01EFA04B0E9
:101FBC0010BD00BF8E550108915501085804002032
:101FCC0030B504460D46002187B0102202A80191BD
:101FDC000DF05AFE22462B46084901A80EF0FAFDD8
:101FEC00074B01A81C68FFF75BFF4FF47A7382B2B2
:101FFC0001A920460CF0F9F907B030BD975501083E
:10200C0058040020014B1860704700BF6C0400207E
:10201C0008B5054C20464FF400510AF058FCC82076
:10202C000AF044F9F6E700BF0010014010B5054C6A
:10203C0026224FF4964120680DF0E8FA236803B984
:10204C00FEE710BD6C040020014B18680DF0B8BA07
:10205C006C040020024B186803689B68184700BF8B
:10206C006C040020024B0146186802681268104785
:10207C006C040020054B0A461B6810B419684C68A8
:10208C0001461846234610BC184700BF6C040020BC
:10209C00024B18680368DB68184700BF6C0400200B
:1020AC0010B50AF015F904460AF018F944400AF084
:1020BC001BF9604010BD00002DE9F0410F4D0646A4
:1020CC002C68C4B9B0F5806F01D9FFF7A1FF0C4B98
:1020DC0018800DF070FC286007F0AEFEB442D5F805
:1020EC00008004F1010706D0204607F099FE08F89D
:1020FC0004003C46F2E72868BDE8F081600400204B
:10210C0064040020044B1B78012B03D04FF4806037
:10211C00FFF7D2BF0020704770040020034B1B78E0
:10212C00012B14BF4FF48060002070477004002016
:10213C00044B1B68002B04DB034B1A780AB10022FA
:10214C001A707047000000205C040020FFDE0000C5
:10215C000B4B70B51B780446012B0E46154602D16D
:10216C005AB1FFF7F3FF4FF48060FFF7A5FF2A4643
:10217C00204431460DF060FD2C44204670BD00BF5C
:10218C007004002070B50C4D2A68A2B10B4E328839
:10219C008AB100243288A3B29A4206D918462B6819
:1021AC000134195C07F042FEF4E70AF0A7F9BDE828
:1021BC00704007F04DBE70BD600400206404002028
:1021CC0038B50D4B1B78012B12D10C4C2368002B0E
:1021DC000DDB0B4B1B7853B10A4DFFF7A9FF286899
:1021EC000DF014FD00232B604FF0FF33236038BD3E
:1021FC00BDE83840FFF7C6BF700400200000002087
:10220C005C04002068040020BFF34F8F0549064B87
:10221C00CA6802F4E0621343CB60BFF34F8F00BF78
:10222C00FDE700BF00ED00E00400FA0510B5044620
:10223C00024B036007F03CFE204610BDA45501087C
:10224C0010B50446FFF7F2FF204620210DF0B7FB36
:10225C00204610BD70B50446002686B007F0AEFED1
:10226C000C4BE661236048200DF0A3FB01213023C9
:10227C000546CDE9013132460423009107F066FD95
:10228C002046042105AA059507F00CFF204606B050
:10229C0070BD00BFA455010810B5044607F09AFEA6
:1022AC0001280AD14FF6FF72E3691988914204D0D4
:1022BC001A78587840EA022010BD0020FCE738B5A7
:1022CC0005460C4607F086FE012801D0002038BDDB
:1022DC002846FFF7E1FFA042F8D3EB6903EB440279
:1022EC00507813F8143040EA0320F0E738B5044670
:1022FC000D46FFF7D1FF02460120904209D8E36951
:10230C0033F810305BBA9BB2AB4203D0431C98B28B
:10231C00F3E7002038BD08B5FFF7E8FF003818BF19
:10232C00012008BD2DE9F84F002599460B9B90F82C
:10233C0018A01D80436907460E4690466BB3BAF150
:10234C00000F2AD00A7852B35FFA85FBDA4524D9FC
:10235C007A6952F825400135204607F084FA327824
:10236C008242F1D188F800B0BCB1204607F07BFA6C
:10237C003070204607F079FA89F80000204607F003
:10238C0076FA0A9B1870204607F073FA0B9B18809C
:10239C00204607F070FA0C9B1870BDE8F88F98F87F
:1023AC0000205245F9D253F82240DDE7F8B5054636
:1023BC000E4600242B7EA3420CDD6B69A70053F85C
:1023CC00240007F050FAB04202D16B69D859F8BD1D
:1023DC000134EFE70020FAE738B515461C46FFF745
:1023EC00E5FF08B9207038BD2946049B227807F018
:1023FC0071FB2070F7E770B5049C15461E46FFF77D
:10240C00D5FF08B9207070BD33462946227807F0F5
:10241C00D2FB2070F7E708B5FFF7C8FF18B1BDE88D
:10242C00084007F02BBA08BD2DE9F0411446DDE950
:10243C0006761D46FFF7BAFF10B93070BDE8F08183
:10244C00036806961E682A463B462146B446BDE8FC
:10245C00F04160472DE9F0411446DDE906761D4652
:10246C00FFF7A4FF10B93070BDE8F0810368069641
:10247C005E682A463B462146B446BDE8F0416047BB
:10248C00704738B5044607F030FD0546204607F086
:10249C00F6FDE061284638BD38B50D46044607F018
:1024AC0047FD2B78012B03D1204607F0E8FDE061B6
:1024BC0038BDC0E90012704713B50446006803F03C
:1024CC00D4FE2168ADF806000DF1060003F0A0FE65
:1024DC00BDF80630C3F383120A2AC3F3090105DDE4
:1024EC00ADF80610BDF8060002B010BD072AF7D0F3
:1024FC0003F47073ADF80630F4E70B460168184628
:10250C0003F09BBE0068013070474068704708B507
:10251C00406804F0A6F8BDE8084007F08AB9704797
:10252C0010B4BDF804400194406810BC08F0C0BC65
:10253C000023406808F0DEBC0023406808F0EFBCC4
:10254C0010B4BDF804400194406810BC08F0FCBC09
:10255C00406808F0DABE0000054A02600022C0E9BB
:10256C000122C0E9042182814FF0FF328261704761
:10257C00A856010841607047016170472DE9F04F82
:10258C008BB09946036904AF05460E469046C7F8D2
:10259C000CD0002B64D0386CFFF7B9FFC31D23F0AF
:1025AC000703ADEB030D0446386CFFF7ABFF0DF1E1
:1025BC00100A2246014650460DF03EFB012C08BF86
:1025CC009DF8103007F1160B04BF03F03F038DF894
:1025DC0010304FF00003494618BF04F1FF345A463F
:1025EC0028691CBF0DF1110AE4B2FB8202F084F8D9
:1025FC000146C7F808B04B1C79602FD0386CFFF738
:10260C005BFF4028796813D080281ED048B96869D0
:10261C007A6C03680092D3F888B04246334689B28C
:10262C00D8474946BA68286902F066F80146E2E7DD
:10263C0068690368CDE901A47A6C0092D3F890B074
:10264C003346424689B2D847EBE768690368CDE95F
:10265C0001A47A6C0092D3F898B0F1E7D7F80CD0BB
:10266C001C37BD46BDE8F08F13B5044C0194049C97
:10267C000094FFF783FF02B010BD00BF9D56010808
:10268C002DE9F04FD1B088461F46DDE95DB31978CE
:10269C0004460131C9B205A816469DF868A19DF8FB
:1026AC006C9103F04DFE05A803F0E1FF0546414691
:1026BC00FFF723FF2846FFF725FF5E9B1A7832BBF6
:1026CC00037803F0C00303709BF8002002F03F0274
:1026DC00134303703946206901F0D9FF5C9A2368D3
:1026EC00CDE9015287B200974A4631462046D3F8CD
:1026FC0028805346C0475C9B5246CDE9005349465F
:10270C003B462046FFF73AFF51B0BDE8F08F5946E3
:10271C0001300DF091FADDE72DE9F04F8BB0044656
:10272C009846DDE9155328460E4617469DF85C90F1
:10273C000793FFF7C1FE402816D0802836D000281A
:10274C0056D122895AB1079B60690168CDE90073A3
:10275C00CDF80890D1F8845043463146A847002361
:10276C0023810BB0BDE8F08FA289E2B1D4F814A09C
:10277C002846DAF800100992D1F88CB0FFF7C2FEA7
:10278C0008902846FFF7C3FE0899079B0138C0B292
:10279C00CDE9007303900291434631465046099AA5
:1027AC00CDF81090D8470023A381DAE76289E2B113
:1027BC00D4F814A02846DAF800100992D1F894B095
:1027CC00FFF7A0FE08902846FFF7A1FE0899079B8B
:1027DC000138C0B2CDE900730390029143463146F3
:1027EC005046099ACDF81090D84700236381B8E77A
:1027FC000748FFF75DFB2846FFF75EFE0A21FFF74F
:10280C00BDFB04480BB0BDE8F04FFFF751BB00BF58
:10281C00BC550108465D01081FB59DF82040039486
:10282C00054C0294079C0194BDF818400094FFF7E6
:10283C0073FF04B010BD00BF9D5601082DE9F04395
:10284C0085B0DDE90C97064648460D469046FFF7E5
:10285C0059FE04464846FFF72FFEB0F5777F55D05A
:10286C0014D8B0F5807F3BD0B0F5A07F3FD0C02806
:10287C0026D03748FFF71CFB4846FFF71DFE0A2100
:10288C00FFF77CFB3348FFF713FB26E040F2DD3308
:10289C00984245D040F2DE339842EAD1E11D0DF169
:1028AC000E0003F0B5FC7069BDF80E20036801340E
:1028BC00009201949C6E2A463B464146A0470CE090
:1028CC00611C0DF10E0003F0A3FC70693A4603681D
:1028DC0029465C6EBDF80E30A04705B0BDE8F0830C
:1028EC0070693A46036829461B6E9847F5E7746988
:1028FC0048462368D3F8A860FFF707FE03F089FE6B
:10290C003A46034629462046B047E6E7706901344B
:10291C0002680094D46E3B462A464146A047DCE749
:10292C00E11D0DF10E0003F073FC76694846336827
:10293C00D3F8B480FFF7E9FD03F06BFEBDF80E3061
:10294C003A46CDE9000329463046631CC047C4E72C
:10295C00EB550108465D010813B5044C0194049C29
:10296C000094FFF76BFF02B010BD00BF9D5601082D
:10297C002DE9F04786B0DDE90E9A074648460D462C
:10298C0016469DF84080FFF7BDFD04464846FFF70C
:10299C0093FDB0F5777F55D014D8B0F5807F3FD03C
:1029AC00B0F5A07F47D0C02825D03748FFF780FA74
:1029BC004846FFF781FD0A21FFF7E0FA3348FFF79D
:1029CC0077FA2AE040F2DD33984248D040F2DE3309
:1029DC009842EAD1E11D0DF1160003F019FC78695B
:1029EC00BDF8162003680134CDF8088001920094DC
:1029FC00D3F8B84043E0611C0DF1160003F008FC5D
:102A0C007869BDF8162003680092CDF80480D3F8DD
:102A1C009C40324653462946A04706B0BDE8F08795
:102A2C0078690368CDF80080D3F8A040534632464D
:102A3C002946A047F1E778690368CDF80080D3F800
:102A4C00A440F3E7786901340368CDF8048000945E
:102A5C00D3F8AC40324653462946A047DDE7E11D8A
:102A6C000DF1160003F0D4FB7869BDF8162003684D
:102A7C000134CDF8088001920094D3F8B04053464D
:102A8C0032462946A047C8E71D560108465D010895
:102A9C001FB59DF81C400294034C0194069C0094B5
:102AAC00FFF766FF04B010BD9D5601082DE9F043F9
:102ABC0087B0DDE90E98074648460E461546FFF7E7
:102ACC0021FD04464846FFF7F7FCB0F57B7F43D069
:102ADC0040F2EE33984232D0B0F5E47F47D1611C1E
:102AEC0005A803F095FB0DF11009E11C0DF1160082
:102AFC0003F08EFB211D484603F085FB611D0DF193
:102B0C00110003F080FB02219DF81030BDF8162057
:102B1C0003F00F03786912098DF810300368ADF8D3
:102B2C001620CDE902910192BDF81420294600929D
:102B3C001C6F32464346A04707B0BDE8F083786966
:102B4C00621C0368073401920094D3F8504132465A
:102B5C0043462946A047EFE778690134036800949F
:102B6C00D3F85441324643462946A047E4E7064889
:102B7C00FFF79EF94846FFF79FFC0A21FFF7FEF985
:102B8C000248FFF795F9D7E7E5550108465D0108BE
:102B9C0013B5044C0194049C0094FFF787FF02B01A
:102BAC0010BD00BF9D5601082DE9F047804688B046
:102BBC0018461D460F461646DDF840909DF844A079
:102BCC00FFF7A0FC04462846FFF776FCB0F57B7FA8
:102BDC0048D040F2EE33984234D0B0F5E47F4FD178
:102BEC00611C07A803F014FB06ADE11C0DF11E00DF
:102BFC0003F00EFB211D284603F005FB611D0DF1B2
:102C0C00190003F000FB02219DF81830BDF81E20BE
:102C1C0003F00F03D8F8140012098DF8183003686C
:102C2C00ADF81E20CDE902510192BDF81C20CDF863
:102C3C0010A000925C6F3A464B463146A04708B054
:102C4C00BDE8F087D8F81400621C036807340192C1
:102C5C00CDF808A00094D3F858413A464B4631467B
:102C6C00A047ECE7D8F8140001340368CDF804A0B1
:102C7C000094D3F85C413A464B463146A047DEE718
:102C8C000648FFF715F92846FFF716FC0A21FFF74F
:102C9C0075F90348FFF70CF9D1E700BF1756010887
:102CAC00465D010813B59DF810400194024C009448
:102CBC00FFF77AFF02B010BD9D5601088161704785
:102CCC00114623B18261406903689B6F18474FF02E
:102CDC00FF33836170474FF0FF33836170474FF0D0
:102CEC00FF33836170472DE9F04F1E460369D1B065
:102CFC000446884615469DF86891DDF86CA12BB307
:102D0C000281012105A803F01BFB05A803F0AFFC11
:102D1C0000210746FFF7F1FB2946206901F0B7FCBB
:102D2C00002813DBCDE9017A236885B200954A4669
:102D3C0041462046D3F828B03346D8472B46324676
:102D4C0049462046CDE9007AFFF718FC51B0BDE8A2
:102D5C00F08F2DE9F041CEB004460D4603A80121B9
:102D6C009846164603F0ECFA03A803F080FC0746DD
:102D7C004FF4A071FFF7C1FBCDE900782368324610
:102D8C00DF6A294600232046B8474EB0BDE8F081E3
:102D9C000A46018B406808F0FDB92DE9F047CEB02A
:102DAC00BDF86C91BDF864A109F1040151440546CC
:102DBC00C9B203A89846174603F0C2FA03A803F059
:102DCC0056FC064640F2C911FFF797FB3046FFF759
:102DDC0099FB0446411CBDF8580103F02EFABDF8CE
:102DEC005C01E11C000180B203F027FA5898621DC7
:102DFC000AF1FF31013003F02EFA4A465A990CF0D1
:102E0C001BFFCDE900682B683A461C6B0023284653
:102E1C001946A0474EB0BDE8F0872DE9F043CFB07E
:102E2C000446DDE956890D2103A81F46164603F01A
:102E3C0087FA03A803F01BFC054640F2DD31FFF7CF
:102E4C005CFB2846FFF75EFBD9F800303246C0F831
:102E5C000130B9F80430A0F80530D8F80030C0F8CB
:102E6C000730B8F80430A0F80B30CDE900572368D0
:102E7C002046DD6A00231946A8474FB0BDE8F08311
:102E8C002DE9F04FD1B004460F4605A80421164693
:102E9C009846BDF978B1BDF86891DDF86CA103F0E6
:102EAC004FFA05A803F0E3FB05464FF4E071FFF77A
:102EBC0024FB2846FFF726FB9DF8703180F803B001
:102ECC0003F03F020378134303709DF87431437091
:102EDC004FEA2B238370A369994523680AD1CDF857
:102EEC0000A09F6B32462B4649462046B84751B04E
:102EFC00BDE8F08FCDE9015ACDF800905D6B4246EC
:102F0C00334639462046A847F1E72DE9F04FD1B0BA
:102F1C009DF87CB10F460BF10301C9B2044605A81C
:102F2C0098461646BDF86891DDF86CA103F008FAD6
:102F3C0005A803F09CFB054640F2C921FFF7DDFA1A
:102F4C002846FFF7DFFA9DF8703143709DF8743115
:102F5C008370BBF1000F04D05A465E9903300CF01D
:102F6C006BFEA269236891450AD1CDF800A09F6B36
:102F7C0032462B4649462046B84751B0BDE8F08F43
:102F8C00CDE9015ACDF800905D6B42463346394687
:102F9C002046A847F1E72DE9F04FD3B09DF888A162
:102FAC000F46164698469DF87C21BDF878310AF1FB
:102FBC000601C9B2044607A805930492BDF880B176
:102FCC00BDF8709103F0BCF907A803F050FB05465F
:102FDC004FF4EB71FFF791FA2846FFF793FA059B34
:102FEC00049A191283701311C3704FEA2B2343EA0E
:102FFC0002124170027180F805B0BAF1000F04D0D2
:10300C005246619906300CF017FEA269236891456F
:10301C005D9A09D100929F6B32462B464946204659
:10302C00B84753B0BDE8F08FCDE90152CDF8009010
:10303C005D6B4246334639462046A847F1E72DE9F9
:10304C00F04FD1B09DF888A10D460AF10501C9B227
:10305C00044605A890461F46BDF86C91DDF870B18A
:10306C0003F06EF905A803F002FB06462946FFF7AC
:10307C0044FA3046FFF746FA411C9DF8740103F000
:10308C00D8F801469DF8780103F0D3F805460146BF
:10309C00BDF88001C0F30B0003F0CFF82B789DF83E
:1030AC007C2143EA02132B70BAF1000F04D0524674
:1030BC006199A81C0CF0C0FDA269236891450AD146
:1030CC00CDF800B09D6B3A46334649462046A8479A
:1030DC0051B0BDE8F08FCDE9016BCDF800905D6B80
:1030EC0041463B4620469DF86821A847F0E710B5BD
:1030FC008AB09DF84C400894129C0794BDF844404B
:10310C0006949DF8404005949DF83C4004949DF82D
:10311C00384003940D9C0294BDF83040CDE9003446
:10312C0013460A4640F2D631FFF789FF0AB010BDAC
:10313C002DE9F04FD3B09DF894A18B4690461E46D6
:10314C00BDF88C21BDF87C310AF10901C9B20446E5
:10315C0007A8059304929DF88071BDF8749103F053
:10316C00EFF807A803F083FA05465946FFF7C5F9AF
:10317C002846FFF7C7F9059B049A191283703B1177
:10318C00C3709DF884313F0143719DF888314170C3
:10319C008371C2F303230771C3710272BAF1000F7A
:1031AC0004D05246649909300CF046FDA26923689C
:1031BC0091455E9A09D100929F6B32462B46494647
:1031CC002046B84753B0BDE8F08FCDE90152CDF899
:1031DC0000905D6B4146334620469DF87021A84710
:1031EC00F0E710B58AB09DF850400994139C0894F0
:1031FC00BDF8484007949DF8444006949DF8404023
:10320C0005949DF83C400494BDF8384003940D9C03
:10321C000294BDF83040CDE9003413460A4640F222
:10322C00CD11FFF785FF0AB010BD70B58AB00EAD99
:10323C0015F81C6F9DF84C40002E4FF0010618BF7E
:10324C000024CDE90856BDF85050CDE906459DF84F
:10325C00484005949DF844400494BDF840400394C4
:10326C000F9C0294BDF83840CDE9003413460A4651
:10327C0040F2CF11FFF75CFF0AB070BD70B4066965
:10328C009DF80C409DF8105026B1CDE9034570BC5B
:10329C00FFF7F6B970BC704710B586B00BAC8281E5
:1032AC0004940A9C0394099C02949DF82040CDE957
:1032BC00003413460A464021FFF7E0FF06B010BD6C
:1032CC0010B586B00BAC428104940A9C0394099C03
:1032DC0002949DF82040CDE9003413460A46802123
:1032EC00FFF7CCFF06B010BD2DE9F04F93B0DDE930
:1032FC001C98834648460E4615461F46FFF702F9B2
:10330C0004464846FFF7D8F8B0F5327F64D8B0F5DC
:10331C00307F2DD240F2FB13984200F03B82B0F587
:10332C00FE7F34D2B0F5C07F00F0DC82A0F5E670F1
:10333C0083B2092B39D8092837D8DFE810F0F70009
:10334C0036001701360017013600360036007D01B5
:10335C00A701A0F2D230072800F28C82DFE810F02F
:10336C009B02A402B9028600A500D500A601B201F9
:10337C00A0F53070082818D8DFE810F022023602C9
:10338C004D021700170063026F023A015701B0F5A6
:10339C00107F00F0D78115D840F2FD13984200F051
:1033AC00E981B0F5007F00F0B681B648FEF780FDEC
:1033BC004846FFF781F80A21FEF7E0FDB248FEF718
:1033CC0077FD6FE0B0F5207FEFD1DBF814A0DAF8D1
:1033DC000030D3F818B0BBE140F2D9339842E4D8AE
:1033EC00B0F5747FB5D8B0F5507F2ED010D8B0F5AD
:1033FC00407FDAD12378DBF8140003F03F03026836
:10340C00CDE90083D46A3B4632462946A04749E0C1
:10341C00A0F5607080B20128C7D8237813F01E0283
:10342C0040D103F03F03012B12BF11466278A17803
:10343C00DBF814000468CDE90221CDE90083246B8C
:10344C003B4632462946A0472CE0DBF81400631CAF
:10345C0002680293237803F03F03CDE90083D2F88E
:10346C00C4403B4632462946A0471BE0E11C0DF107
:10347C00460002F0CDFEBDF84630DBF81400C3F375
:10348C000B030268ADF846300493E37829461B0918
:10349C000393A37802936378CDE900833B46946C45
:1034AC003246A04713B0BDE8F08FE11C0DF1460089
:1034BC0002F0AEFEDBF814B0BDF846A0DBF800302D
:1034CC00CAF30B0AD3F8D430ADF846A00A93E378CC
:1034DC006278A1781B0948460D920C910B93FFF76B
:1034EC0016F80B9B0C990D9A0538C0B20534CDE932
:1034FC0004A4CDE900820690039302913B46324628
:10350C00294658460A9CA047CCE7E11C0DF1460021
:10351C0002F07EFEDBF814B0BDF846A0DBF80030FC
:10352C00CAF30B0A5B6CADF846A0CFE7E27994F8CE
:10353C0008C01202DBF8140002F470624CEA0202BA
:10354C00016823790592A2791B1104926279039286
:10355C00E27843EA0213DBB20293A3783246CDE958
:10356C0000833B46CC6C2946A0479BE7A378E178C7
:10357C000A93237948461A1142EA0112D2B20C92EC
:10358C001B02627903F470631343E2790B9312020A
:10359C0002F47063227AA1791A430F910E92FEF70E
:1035AC008BFFDBF814A00D90DAF800000934D0F88A
:1035BC0080B04846FEF7ABFF0D9B0F99A3F5E77261
:1035CC005342534108939DF82C300E9A03930C9B55
:1035DC00093802930A9BC0B2CDE90083079005928B
:1035EC0004913B463246294650460694D84759E743
:1035FC00DBF814A0DAF80030D3F850B06378A27876
:10360C0048460B930A92FEF782FF0A9A0B9B0338EB
:10361C00C0B20334CDE90083049002923B4632469B
:10362C00294650460394D8473CE7DBF814A0DAF857
:10363C000030D3F854B0E1E72379E178DBF814A03B
:10364C001B1143EA0113DAF80010A278DBB2D1F8AF
:10365C0058B00C920B93617948460A91FEF757FFCC
:10366C000A990B9B0C9A0638C0B20634CDE900823D
:10367C0005900391029332463B46294650460494EA
:10368C00D8470FE746560108465D01082379E178D3
:10369C00DBF814A01B1143EA0113A278DAF800102E
:1036AC00DBB2D1F85CB00C920B93D4E7E278DBF888
:1036BC00140003680392A27802926278CDE900822A
:1036CC001C6CBDE6DBF814A0A278DAF80030E178C7
:1036DC00D3F8E8B06378601D94F804900C930B92C7
:1036EC000A9102F0C2FDC0F30B00E4790A990B9A1F
:1036FC000C9B069009F03F0005904FEAD910CDE9DC
:10370C0000830490039102923B4632462946504670
:10371C000794D847C6E62046DBF81490D9F8003059
:10372C00D3F81CA010F8013B03F03F0402F09DFD00
:10373C003B46CDE90140324629464846CDF800804B
:10374C00D047AFE6DBF814A0DAF80030D3F8F4B0C9
:10375C00204610F8019B02F088FD09F03F09033464
:10376C00CDE902043B46324629465046CDE9008954
:10377C00D84797E6E378A1781B0243EA0143217905
:10378C00DBF814000B43026802936378CDE90083E5
:10379C00946A66E6DBF81400631D02680393E37811
:1037AC00A1781B0243EA014321790B43029363780E
:1037BC00CDE90083546A3B4632462946A04771E660
:1037CC00627894F802C0DBF814001303E47803F475
:1037DC00702302F00F02016803EB0C23CDE9008289
:1037EC00234402938C6B3CE6DBF814006278231DB7
:1037FC000168039394F802C01303E47803F4702374
:10380C0002F00F02CDE9008203EB0C232344029358
:10381C00D1F81C41CFE7DBF814006278231D016856
:10382C00039394F802C01303E47803F4702302F0BA
:10383C000F02CDE9008203EB0C2323440293CC6BE3
:10384C00B9E7DBF8140032460368CDF80080D3F8F2
:10385C00284129463B46A04724E6DBF814000134F6
:10386C000368CDE900843246D3F8304129463B4603
:10387C00A04717E6DBF81490A01CD9F80030D3F859
:10388C0034A002F0F8FC3B46CDE9008032462946D4
:10389C004846D04706E6DBF8140062780368CDE9A9
:1038AC000082D3F83C41AEE5DBF81490A01CD9F8AB
:1038BC00003094F801B0D3F844A102F0DCFC3B4694
:1038CC00CDE901B0324629464846CDF80080D047B4
:1038DC00E8E5DBF8140062780368CDE90082D3F8E0
:1038EC004C4190E50023CDE9033323782A4603F0BD
:1038FC003F03CDE901830221334658460097FFF779
:10390C00BFFACFE513B5044C0194049C0094FFF767
:10391C00EBFC02B010BD00BF9D56010813B5049C12
:10392C00CDE9003413460A460121FFF7DDFC02B055
:10393C0010BD000013B5034C0094FFF7EFFF02B06D
:10394C0010BD00BF9D5601082DE9F04F93B0DDF876
:10395C0074B0074658460C4616461D46BDF8708096
:10396C009DF87CA0FEF7CEFD81465846FEF7A4FDDF
:10397C00B0F5407F00F08F8072D8B0F5207F00F05A
:10398C00898155D8B0F5007F32D8B0F5FD7F1BD8B2
:10399C00BE48FEF78DFA5846FEF78EFD0A21FEF75B
:1039AC00EDFABB48FEF784FA9DE0A0F2D23007286E
:1039BC0000F22282DFE810F03302400250029A003B
:1039CC00BE00F700090120016FF4FD7318440528AF
:1039DC00DED801A353F820F0153D00081F3D000868
:1039EC00AB3C0008DB3C00089D390008693C000832
:1039FC00B0F5107FCCD17F693A68D2F8F0B0484668
:103A0C0010F8012B02F03F020B9202F02EFC09F190
:103A1C000303CDE903030B9A1E9B0292CDE90083AD
:103A2C002A46334621463846CDF814A0D8475AE0EA
:103A3C00A0F5307082B2062AAAD80628A8D801A30D
:103A4C0053F820F0293D00085F3D00089B3D00081D
:103A5C009D3900089D390008CF3D0008E33D000862
:103A6C0040F2D932904293D8B0F5747F9DD8B0F51E
:103A7C00507F23D0B0F5607F8AD178691E9A036895
:103A8C00CDE90082CDF808A0D3F8C87033462A4699
:103A9C002146B84727E078690268CDF80CA099F860
:103AAC00003003F03F0302931E9BCDE90083D2F854
:103ABC00BC7033462A462146B84714E0786909F1B0
:103ACC00010102680391CDF810A099F8003021464D
:103ADC0003F03F0302931E9BCDE900833346D2F8DB
:103AEC00C0702A46B84713B0BDE8F08F09F1030146
:103AFC000DF1460002F08CFBBDF846207869C2F34C
:103B0C000B020168CDE9052AADF8462099F803208F
:103B1C001209049299F80220039299F801302A466E
:103B2C0002931E9BCDE900833346D1F8CC7021461D
:103B3C00B847D8E709F103010DF1460002F068FB24
:103B4C007F69BDF846203968C2F30B02D1F8D0303A
:103B5C00ADF846200F920B9399F8013099F80310A9
:103B6C000C9399F80230090958460D930E91FEF703
:103B7C00CEFC09F1050306930D9B0F9A03930C9B46
:103B8C000E99029305381E9BC0B2CDE900830790B5
:103B9C0005920491334621462A4638460B9CCDF8B3
:103BAC0020A0A0479FE709F103010DF1460002F0A8
:103BBC002FFB7F69BDF846203968C2F30B02D1F8A0
:103BCC00D830ADF846200F92C5E778690268CDF879
:103BDC0014A099F80310049199F80210039199F824
:103BEC000130214602931E9BCDE900833346D2F867
:103BFC00DC702A46B84776E77F6999F803103A6873
:103C0C0009F10500D2F8E43099F802200B9399F8E9
:103C1C00013099F804B00C930E920D9102F025FB33
:103C2C00CDF824A099F807300D9908930BF03F03B9
:103C3C0006934FEADB1305930C9B0E9A02931E9B83
:103C4C00C0F30B00CDE90083079004910392214649
:103C5C0033462A4638460B9CA04744E748467F69C2
:103C6C003A68D2F8ECB010F8012B02F03F0902F0E0
:103C7C00FCFA1E9BCDE9030ACDE900832A463346A4
:103C8C0021463846CDF80890D8472CE773560108E2
:103C9C00465D01087F693A68D2F8F8B0AFE648464D
:103CAC007F693A68D2F8FCB010F8012B02F03F099A
:103CBC0002F0DBFACDE9030ACDF808901E9B2A46E8
:103CCC00CDE90083214633463846D8470BE77F6958
:103CDC003A68D2F800B1484610F8012B02F03F02C6
:103CEC000B9202F0C2FA09F10303CDE903030B9A1C
:103CFC001E9B0292CDE900832A4633462146384664
:103D0C00CDF814A0D847EEE67F693A68D2F808B12E
:103D1C00E1E77F693A68D2F80CB1DCE7786999F889
:103D2C0001200168CDF810A099F8027099F80330C1
:103D3C0002F00F0203EB07239BB203931E9B02922C
:103D4C00CDE900832A46D1F8EC7033462146B847BA
:103D5C00C9E6786909F1040799F801200168CDF8E2
:103D6C0014A0049799F8027099F8033002F00F022E
:103D7C0003EB07239BB203931E9B0292CDE90083B6
:103D8C00D1F8F07033462A462146B847ABE678693D
:103D9C0009F1040799F801200168CDF814A00497E3
:103DAC0099F8027099F8033002F00F0203EB072325
:103DBC009BB203931E9B0292CDE90083D1F8F8705D
:103DCC00E0E778691E9A0368CDE90082CDF808A077
:103DDC00D3F824715AE6786909F101030268029359
:103DEC001E9BCDF80CA0CDE900832146D2F82C7196
:103DFC0033462A46B84776E67F6909F102003A68ED
:103E0C00D2F834B102F037FA1E9BCDE9020ACDE9A3
:103E1C0000832A46334621463846D84763E67869FC
:103E2C000268CDF80CA099F8013002931E9BCDE9E5
:103E3C000083D2F838713CE67F6909F102003A68D8
:103E4C00D2F840B199F801200B9202F014FA0B9AB7
:103E5C00CDE9030A029231E778690268CDF80CA02B
:103E6C0099F8013002931E9BCDE90083D2F848717A
:103E7C001FE600BF1FB59DF820400394054C02942B
:103E8C00079C0194BDF818400094FFF75DFD04B049
:103E9C0010BD00BF9D560108F0B58469BDF81450E3
:103EAC001E46DDE906CEA542076809D1CDF814E01F
:103EBC00BC6B634632462946A446BDE8F0406047D9
:103ECC0005957C6BA446BDE8F04060472DE9F047B2
:103EDC00D0B09DF8684106460F469146984674B39B
:103EEC00022C2FD14FF00E0A514605A802F028FAE9
:103EFC0005A802F0BCFB05464FF45071FEF7FDFA25
:103F0C002846FEF7FFFA0378BAF1010F44EA0304DE
:103F1C00047005D05B990AF1FF3201300BF08CFE76
:103F2C00599B4246CDE90153BDF8603139460093A7
:103F3C0030464B46FFF7B0FF50B0BDE8F0874FF06E
:103F4C00030AD1E74FF0010A3F24CDE72DE9F041F8
:103F5C00D0B004460D4605A8012117461E4602F0B6
:103F6C00EFF905A802F083FB80464FF46071FEF771
:103F7C00C4FA569B3246CDE90183238B2946009324
:103F8C0020463B46FFF788FF50B0BDE8F0812DE995
:103F9C00F043D1B004460E4605A8042190461F46B6
:103FAC00BDF8689102F0CCF905A802F060FB05465B
:103FBC004FF46071FEF7A1FA2846FEF7A3FA0378D6
:103FCC0080F8039043F0210303709DF864313A4666
:103FDC0043704FEA29238370589B3146CDE9015336
:103FEC00238B204600934346FFF756FF51B0BDE8A4
:103FFC00F0832DE9F047D0B006460F4605A80821FE
:10400C00984691469DF874A102F09AF905A802F021
:10401C002EFB054640F2D931FEF76FFA2846FEF723
:10402C0071FA9DF86831044643709DF86C318370C9
:10403C009DF87031C370BAF1000F03D0037963F0AF
:10404C007F0303719DF87831BDF87C0103F03F02CA
:10405C002379611D13432371C0F30B0002F0EDF8BB
:10406C009DF880314246E371599B3946CDE90153A5
:10407C00BDF86031304600934B46FFF70DFF50B052
:10408C00BDE8F0872DE9F047D0B09DF86CA10E4645
:10409C000AF105010546C9B205A890461F46DDF890
:1040AC00709102F04DF905A802F0E1FA04464FF4C4
:1040BC00FF71FEF722FA2046FEF724FA9DF86831CC
:1040CC00524643704FEA194383704FEA19235D99A6
:1040DC00C37080F8049005300BF0AEFD599B3A4646
:1040EC00CDE90143BDF86031314600932846434683
:1040FC00FFF7D2FE50B0BDE8F0872DE9F04FD1B0FC
:10410C009DF870A10F46BAF1010F0CBF07210521D4
:10411C00064605A898469146DDF878B102F010F9EC
:10412C0005A802F0A4FA05464FF4FE71FEF7E5F976
:10413C002846FEF7E7F94FEA1B438370BAF1010FEB
:10414C004FEA1B23044680F801A0C37080F804B02A
:10415C0007D19DF874115F9802F0A0F803126371F7
:10416C00A0715B9B4246CDE90153BDF868313946DD
:10417C00009330464B46FFF78FFE51B0BDE8F08FF1
:10418C002DE9F041D0B005460E4605A80221904617
:10419C001F4602F0D5F805A802F069FA044640F271
:1041AC00D231FEF7AAF92046FEF7ACF99DF8603142
:1041BC003A464370579B3146CDE90143BDF858311F
:1041CC00284600934346FFF767FE50B0BDE8F081E8
:1041DC002DE9F043D1B09DF86C610C46F11CC9B2CD
:1041EC00074605A89046994602F0AAF805A802F0E1
:1041FC003EFA05462146FEF780F92846FEF782F97D
:10420C000146037806F03F021343044601F8013BD4
:10421C00BDF8700102F011F826B132465D99E01C30
:10422C000BF00AFD5A9B4146CDE90153BDF86431B0
:10423C00384600939DF860214B46FFF72DFE51B098
:10424C00BDE8F08310B586B00C9C0594BDF82C40ED
:10425C0004949DF828400394099C0294BDF82040D6
:10426C00CDE9003413460A464FF41071FFF7B0FF46
:10427C0006B010BD2DE9F047D0B09DF86CA1894671
:10428C000AF10401C9B2054605A81F461646DDF819
:10429C00708102F055F805A802F0E9F90446494688
:1042AC00FEF72BF92046FEF72DF94FEA18310AF0EC
:1042BC000F0321F00F0119434378814619434170D4
:1042CC00811C1FFA88F001F0B8FFBAF1000F05D07D
:1042DC0052465D9909F104000BF0AEFC5A9B314635
:1042EC00CDE90143BDF86431284600939DF8602167
:1042FC003B46FFF7D1FD50B0BDE8F08710B586B056
:10430C000C9C05940B9C04949DF828400394099CE8
:10431C000294BDF82040CDE9003413460A4640F221
:10432C00C121FFF7A7FF06B010BD000010B5044671
:10433C00024B036005F0BCFD204610BDEC56010895
:10434C0010B50446FFF7F2FF20461C210BF037FB9B
:10435C00204610BD08B529B91946012001F06DFFA2
:10436C00012008BD00221A70FAE70000F0B50446DF
:10437C0089B005F023FE1B4B482023600BF019FB82
:10438C00012530270323064629460022CDE9017377
:10439C000095042305F0DAFC482005960BF009FB88
:1043AC00332306462A460D21CDE90053152305F08B
:1043BC00B9FA482006960BF0FCFA0B4B0646CDE9F1
:1043CC00027302232146009310220023019505F06D
:1043DC00C9FA20460C2105AA079605F063FE204673
:1043EC0009B0F0BDEC5601086143000810B50C464D
:1043FC0005F045FE005D10BD2DE9F84F00259946EE
:10440C000B9B90F818A01D80436907460E469046FA
:10441C006BB3BAF1000F2AD00A7852B35FFA85FB5E
:10442C00DA4524D97A6952F825400135204605F041
:10443C001AFA32788242F1D188F800B0BCB1204629
:10444C0005F011FA3070204605F00FFA89F80000DB
:10445C00204605F00CFA0A9B1870204605F009FA64
:10446C000B9B1880204605F006FA0C9B1870BDE8D3
:10447C00F88F98F800205245F9D253F82240DDE726
:10448C00F8B505460E4600242B7EA3420CDD6B6965
:10449C00A70053F8240005F0E6F9B04202D16B698D
:1044AC00D859F8BD0134EFE70020FAE738B51546C6
:1044BC001C46FFF7E5FF08B9207038BD2946049B60
:1044CC00227805F007FB2070F7E770B5049C1546C1
:1044DC001E46FFF7D5FF08B9207070BD334629463C
:1044EC00227805F068FB2070F7E708B5FFF7C8FFE6
:1044FC0018B1BDE8084005F0C1B908BD2DE9F0417F
:10450C001446DDE906761D46FFF7BAFF10B9307088
:10451C00BDE8F081036806961E682A463B46214694
:10452C00B446BDE8F04160472DE9F0411446DDE9A1
:10453C0006761D46FFF7A4FF10B93070BDE8F08178
:10454C00036806965E682A463B462146B446BDE89B
:10455C00F0416047704737B50D460D210446FFF713
:10456C008FFF694605F022FB2A460521684601F0BB
:10457C0072FE0146204605F0A3FC03B030BD37B5F2
:10458C000A4604460521684601F049FE05460D2100
:10459C002046FFF775FF694605F0FEFB29462046CD
:1045AC0005F0A3FC03B030BD08B505F005FE0530E1
:1045BC0080B208BD10B50446024B036005F078FCD0
:1045CC00204610BD0C57010810B50446FFF7F2FF4A
:1045DC00204624210BF0F3F9204610BDF0B504461B
:1045EC00002687B005F0EAFC134BE66123604820F7
:1045FC000BF0DFF9302701210223054632460091EA
:10460C00CDE90173042305F0A1FB482004950BF0C0
:10461C00D0F94FF6FF730546324600931721142349
:10462C00019705F07FF92046082104AA059505F0AD
:10463C0039FD204607B0F0BD0C570108C369187846
:10464C005B7843EA0020704708B50246FFF7F6FF97
:10465C00884281BFD369890002315A1885BF5078CE
:10466C005B5C002040EA032008BD08B50246FFF75A
:10467C00E5FF884281BFD369013103EB8102507899
:10468C008ABF13F82130002040EA032008BD2DE931
:10469C00F041048C07460E4674B9FFF7CFFF8046F5
:1046AC00A5B2A84525D929463846FFF7DEFFB0420A
:1046BC0004F10104F4D10DE04FF00008013CA4B268
:1046CC0008EB0405C5F34F0529463846FFF7CDFF27
:1046DC00864205D129463846FFF7B6FFBDE8F08182
:1046EC0035BF05F1FF340135A4B21FFA85F8A0459A
:1046FC00E6D94FF0FF30F1E72DE9F843054688463F
:10470C001646FFF79BFF814614884C4510D2671C58
:10471C00BFB2214628463780FFF796FF404505D1AA
:10472C0021462846FFF7A1FFBDE8F8833C46ECE79D
:10473C004FF0FF30F8E72DE9F84F002599460B9B19
:10474C0090F818A01D80436907460E4690466BB33F
:10475C00BAF1000F2AD00A7852B35FFA85FBDA451A
:10476C0024D97A6952F825400135204605F07BF8AA
:10477C0032788242F1D188F800B0BCB1204605F005
:10478C0072F83070204605F070F889F80000204669
:10479C0005F06DF80A9B1870204605F06AF80B9B23
:1047AC001880204605F067F80C9B1870BDE8F88F50
:1047BC0098F800205245F9D253F82240DDE7F8B5BD
:1047CC0005460E4600242B7EA3420CDD6B69A70028
:1047DC0053F8240005F047F8B04202D16B69D85960
:1047EC00F8BD0134EFE70020FAE738B515461C4652
:1047FC00FFF7E5FF08B9207038BD2946049B2278E5
:10480C0005F068F92070F7E770B5049C15461E4654
:10481C00FFF7D5FF08B9207070BD334629462278C2
:10482C0005F0C9F92070F7E708B5FFF7C8FF18B114
:10483C00BDE8084005F022B808BD2DE9F04114464A
:10484C00DDE906761D46FFF7BAFF10B93070BDE8FA
:10485C00F081036806961E682A463B462146B446FC
:10486C00BDE8F04160472DE9F0411446DDE90676DC
:10487C001D46FFF7A4FF10B93070BDE8F081036846
:10488C0006965E682A463B462146B446BDE8F04192
:10489C006047704738B5044605F027FB05462046AF
:1048AC0005F0EDFB0023E0612384284638BD38B5C4
:1048BC000D46044605F03CFB2B78012B05D1204618
:1048CC0005F0DDFB0023E061238438BD70477047A1
:1048DC007047704770477047704770477047704714
:1048EC007047704770477047704770477047704704
:1048FC0070477047704770477047704770477047F4
:10490C0070477047704770477047704770477047E3
:10491C002DE9F04387B09DF83C501746002D984682
:10492C0018BF3F250E4604460DF11409443001F022
:10493C00E6FF494601F081FC0E9B3246CDE900832F
:10494C0002213B46CDE9025904F1F000FFF7BEFA13
:10495C0007B0BDE8F08310B586B00B9CF030049422
:10496C00BDF8284003949DF824400294089CCDE99E
:10497C00003413460A460221FFF764FC06B010BD52
:10498C002DE9F04186B0BDF8388004460D46043060
:10499C00414616461F4604F03DF99DF83430CDE9EA
:1049AC00038002930C9B2A46CDE900730221334607
:1049BC0004F1F000FFF746FC06B0BDE8F0812DE9EC
:1049CC00F04786B0DDF840809DF83C9000F1040A79
:1049DC0004460D4616461F464A46119B4146504614
:1049EC0004F014F94146504604F014F900230293E4
:1049FC000E9BCDE90480CDE900732A463346022193
:104A0C00CDF80C9004F1F000FFF777FB06B0BDE891
:104A1C00F0872DE9F04186B0DDF8388004460D466C
:104A2C000430414616461F4604F0F4F89DF8343025
:104A3C00CDE904800393002302930C9B2A46CDE915
:104A4C0000730221334604F1F000FFF71BFB06B0A4
:104A5C00BDE8F08170B504460D461646443002F0B0
:104A6C0026F83246294604F15400FFF773FD32460E
:104A7C00294604F18400FDF703FD3246294604F172
:104A8C00A400FFF706FF3246294604F1C800BDE832
:104A9C00704003F0D9BE1FB500240294069CF03080
:104AAC00CDE9003413460A460221FFF769FB04B036
:104ABC0010BD2DE9F04186B0DDF8388004460D4676
:104ACC000430414616461F4604F0A4F89DF83430D5
:104ADC00CDE9038002930C9B2A46CDE90073022199
:104AEC00334604F1F000FFF709FC06B0BDE8F08195
:104AFC002DE9F041044600208CB01F469DF84C80F7
:104B0C009DF850300D4616468DF82A308DF82B0046
:104B1C008DF82C00ADF82E008DF82D00B8F1040F97
:104B2C0015D8DFE808F0033446586A000DF12D0360
:104B3C0002930DF12E0301930BAB009315AA0DF10B
:104B4C002B030DF12A0104F1440001F041FE9DF804
:104B5C002D302A460893BDF82E30022107939DF87C
:104B6C002C3004F1F00006939DF82B3005939DF842
:104B7C00543004939DF82A30CDE90283129BCDE981
:104B8C0000733346FFF735FA0CB0BDE8F0810DF138
:104B9C002D0302930DF12E0301930BAB009315AA79
:104BAC000DF12B030DF12A0104F18400FDF7BAFB82
:104BBC00CDE70DF12D0302930DF12E0301930BABF9
:104BCC00009315AA0DF12B030DF12A0104F1A40099
:104BDC00FFF7B1FDBBE70DF12D0302930DF12E0391
:104BEC0001930BAB009315AA0DF12B030DF12A01C8
:104BFC0004F1C80003F07AFDA9E70DF12D0302932F
:104C0C000DF12E0301930BAB009315AA0DF12B03A1
:104C1C000DF12A0104F15400FFF7EEFB97E72DE9A3
:104C2C00F04786B09DF83CA0994604460F46904646
:104C3C009DF84050BDF84860139BBAF1040F0BD897
:104C4C00DFE80AF0031D252D350011AA0092294634
:104C5C003246443001F0E6FE9DF844202368CDE94D
:104C6C0002520E9A04960092CDF804A09D6C424616
:104C7C004B4639462046A84706B0BDE8F08711AA36
:104C8C000092294632468430FDF7B5FBE4E711AAC1
:104C9C00009229463246A430FFF7B6FDDCE711AA94
:104CAC00009229463246C83003F089FDD4E711AA98
:104CBC000092294632465430FFF707FCCCE730B45B
:104CCC000D46029C1946BDF80C20049B092D1FD8DB
:104CDC00DFE805F0050A0F191E1E1E1E1E14029495
:104CEC00443030BC01F09EBE0294843030BCFDF7E1
:104CFC0082BB0294A43030BCFFF786BD0294C8304E
:104D0C0030BC03F05CBD0294543030BCFFF7DDBB0B
:104D1C000023237030BC70472DE9F04F89B09DF80B
:104D2C004C709A460446884691469DF85450BDF8FE
:104D3C005C60189B9DF868B0092F49D8DFE807F034
:104D4C000527304048484848483816AA009229465A
:104D5C003246443001F066FE3B46BBF1000F13D0E7
:104D6C00CDE906639DF858304246CDE904539DF8D1
:104D7C0050300221CDE90273129B04F1F000CDE911
:104D8C0000A34B46FEF751FA09B0BDE8F08F16AA06
:104D9C000092294632468430FDF72DFB0023DCE7D8
:104DAC0016AA009229463246A430FFF72DFDF5E7EE
:104DBC0016AA009229463246C83003F000FDEDE7F2
:104DCC0016AA0092294632465430FFF77EFBE5E7DF
:104DDC00FD23C2E72DE9F04F8DB008AF97F83C806A
:104DEC000546C7E9022197F840B0B7F8486097F834
:104DFC0044A07B60B8F1040F32D8DFE808F0030A56
:104E0C000F272C005946443001F01CFE5EB90224D9
:104E1C000DE059468430FDF7FEFAF7E75946A43009
:104E2C00FFF702FD06B397F844404443E4B2E31D98
:104E3C0023F00703ADEB030D0DF12009B8F1040FBE
:104E4C001ED8DFE808F01336414C57005946C830DD
:104E5C0003F0C5FCDAE759465430FFF746FBD5E7BB
:104E6C004FF0000A5446E2E74446E0E73246594622
:104E7C00CDF8009007F1440305F1440001F0C3FDA7
:104E8C00BAF1000F08BF0024BB6B022101937B68B1
:104E9C00CDE906940093CDE904A6D7E90232CDE919
:104EAC00028B05F1F000FEF722F91437BD46BDE880
:104EBC00F08F32465946CDF8009007F1440305F1C6
:104ECC008400FDF789FADBE732465946CDF80090AD
:104EDC0007F1440305F1A400FFF787FCD0E7324645
:104EEC005946CDF8009007F1440305F1C80003F0D2
:104EFC0057FCC5E732465946CDF8009007F14403FC
:104F0C0005F15400FFF7D2FABAE72DE9F04F8FB054
:104F1C000AAF97F8484097F83C900546934697F8A7
:104F2C0044A0B7F84C6079603B60FC73B9F1090F91
:104F3C0034D8DFE809F0051C212B33333333332607
:104F4C005146443001F07EFD2EBB0224E31D23F0BC
:104F5C000703ADEB030D0DF12808B9F1090F2AD8A1
:104F6C00DFE809F01F46516729292929295C514698
:104F7C008430FDF750FAE7E75146A430FFF754FCB4
:104F8C00E2E75146C83003F02AFCDDE751465430C5
:104F9C00FFF7ABFAD8E74443E4B2D7E70024FC733D
:104FAC00D4E732465146CDF8008007F10F0305F1E6
:104FBC00440001F028FDFB7B7A68002B08BF00241D
:104FCC00CDE9053697F840300221CDE90293BB6B51
:104FDC00CDE9078401933B68CDF810A0009305F14F
:104FEC00F0005B46FEF7FDF81437BD46BDE8F08FC8
:104FFC0032465146CDF8008007F10F0305F18400CD
:10500C00FDF7EAF9D7E732465146CDF8008007F1B3
:10501C000F0305F1A400FFF7E8FBCCE7324651463D
:10502C00CDF8008007F10F0305F1C80003F0B8FBC1
:10503C00C1E732465146CDF8008007F10F0305F168
:10504C005400FFF733FAB6E72DE9F04FCBB00793D6
:10505C00FF239DF854810DF12705044692469DF8D7
:10506C005891579F9DF8606106912B70B8F1040F11
:10507C0000F2B780DFE808F0033B5C7D940000F1A0
:10508C00440B4946584601F0E7FB04F0F0FB3E2880
:10509C001BD10AAB00933A46334649465846019514
:1050AC0001F0D9FC2B78022105930AABCDE90393CF
:1050BC00549B069A0193079BCDF80880009304F14A
:1050CC00F0005346FDF721FF0EE0D4F87CB0BBF1A5
:1050DC00000F09D00AAB009332463B4649460020EC
:1050EC000195D8470028DDD14BB0BDE8F08F00F119
:1050FC00840B49465846FDF759F904F0B8FB3E2895
:10510C0009D10AAB00933A463346494658460195B5
:10511C00FDF78AF9C6E7D4F87CB0BBF1000FE3D0F9
:10512C000AAB009332463B46494601200195D8E72D
:10513C0000F1A40B49465846FFF741FB04F097FBDE
:10514C003E2809D10AAB00933A46334649465846A5
:10515C000195FFF772FBA5E7D4F87CB0BBF1000F0B
:10516C00C2D00AAB009332463B4649460220019519
:10517C00B7E700F1A40B49465846FFF720FB04F0B3
:10518C0076FB3E28DED0D4F87CB0BBF1000FABD060
:10519C000AAB009332463B46494603200195A0E7F3
:1051AC0000F1540B49465846FFF76AF904F05FFBCF
:1051BC003E2809D10AAB00933A4633464946584635
:1051CC000195FFF79BF96DE7D4F87CB0BBF1000FAC
:1051DC008AD00AAB009332463B46494604200195DF
:1051EC007FE7D0F87CB0BBF1000F3FF47DAF0AAB8A
:1051FC00009332463B4649464046019571E72DE9FE
:10520C00F04FCDB00993FF239DF85C910DF12F0564
:10521C000446CDE907129DF860A1DDF864819DF884
:10522C0068710CAE2B70B9F1040F00F2B480DFE89A
:10523C0009F003355473920000F1440B5146584663
:10524C0001F00AFB04F013FB3E281AD13B46424600
:10525C0051465846CDE9006501F013FC2B7802212C
:10526C00CDE90463569BCDE9029A0193099B04F1A5
:10527C00F0000093DDE90723FDF747FE4DB0BDE8D4
:10528C00F08FD4F880B0BBF1000FE7D043463A461C
:10529C0051460020CDE90065D847DFE700F1840BCB
:1052AC0051465846FDF782F804F0E1FA3E2808D141
:1052BC003B46424651465846CDE90065FDF7CAF8D3
:1052CC00CCE7D4F880B0BBF1000FC7D043463A46C8
:1052DC0051460120CDE90065DEE700F1A40B5146F3
:1052EC005846FFF76CFA04F0C2FA3E2808D13B4648
:1052FC00424651465846CDE90065FFF7B4FAADE792
:10530C00D4F880B0BBF1000FA8D043463A465146C2
:10531C000220CDE90065BFE700F1C80B51465846A5
:10532C0003F028FA04F0A3FA3E2808D13B46424683
:10533C0051465846CDE9006503F070FA8EE7D4F873
:10534C0080B0BBF1000F89D043463A46514603204A
:10535C00CDE90065A0E700F1540B51465846FFF724
:10536C008FF804F084FA3E2808D13B464246514659
:10537C005846CDE90065FFF7D7F86FE7D4F880B051
:10538C00BBF1000F3FF46AAF43463A465146042046
:10539C00CDE9006580E7D0F880B0BBF1000F3FF499
:1053AC005DAF43463A4651464846CDE9006573E742
:1053BC002DE9F04FCFB00A939DF864310DF136040E
:1053CC00089301232370089B054691469DF86C7148
:1053DC00DDF870819DF874A10991092B00F25181BF
:1053EC00DFE813F00A006A00A3000B014F014F0124
:1053FC004F014F014F01E20000F1440B3946584672
:10540C0001F02AFA04F033FA3E28064629D198F81E
:10541C0000301BB1F8238DF838300AE0FF232370DD
:10542C000EAB00934246534639465846019401F060
:10543C0012FB2378022106930EABCDE904739DF881
:10544C006831099A0393089B05F1F0000293589B6D
:10545C0001930A9B00934B46FDF79DFD4FB0BDE8B1
:10546C00F08F38BB01220DF1370A434639465846B6
:10547C00CDF800A08DF8372001F0D4FA9AF800800E
:10548C00B8F1010F40F0FB800DF139030093424657
:10549C0053463946584601F0B6FA9AF80030002BBC
:1054AC0018BF4FF002088DF8368008BFF8268DF82B
:1054BC003860BEE7FE23AEE700F1840B3946584650
:1054CC00FCF774FF04F0D3F93E2806460FD198F888
:1054DC000030002B9ED1FF2323700EAB009342466D
:1054EC005346394658460194FCF79EFFA1E7002825
:1054FC00E0D101220DF1370A434639465846CDF822
:10550C0000A08DF83720FCF776FF9AF80080B8F1F0
:10551C00010F40F0B4800DF139030093424653461D
:10552C0039465846FCF758FFB7E700F1C80B394627
:10553C00584603F01FF904F09AF93E28064610D19C
:10554C0098F80030002B7FF465AFFF2323700EAB6F
:10555C0000934246534639465846019403F048F9A5
:10556C0067E70028A6D101220DF1370A43463946D8
:10557C005846CDF800A08DF8372003F020F99AF8A2
:10558C000080B8F1010F7AD10DF139034246009336
:10559C0039465346584603F003F99AF80030002B6D
:1055AC00089B18BF98467EE700F1C80B3946584651
:1055BC0003F0E0F804F05BF93E280646C0D0002862
:1055CC007FF478AF01220DF1370A4346394658462D
:1055DC00CDF800A08DF8372003F0F1F89AF8008090
:1055EC00B8F1010F4BD10DF13903009342465346EC
:1055FC003946584603F0D4F84FE700F1540B3946BE
:10560C005846FEF73DFF04F032F93E28064610D10D
:10561C0098F80030002B7FF4FDAEFF2323700EAB07
:10562C00009342465346394658460194FEF766FFAE
:10563C00FFE600287FF43EAF01200DF1370A024649
:10564C008DF83700434639465846CDF800A0FEF792
:10565C003CFF9AF80020012A11D10DF13903009377
:10566C003946534658460B92FEF720FF9AF8003005
:10567C000B9A002B18BF02228DF8362015E7FD235C
:10568C00C9E6FF23C7E62DE9F04F0546FF20CFB052
:10569C000B939DF864310DF1360491469DF86C71B5
:1056AC00DDF870A19DF874810A9109932070092B83
:1056BC0000F21581DFE813F00A0054008A00E700BD
:1056CC0013011301130113011301BB0005F1440B6A
:1056DC003946584601F0C0F804F0C9F83E28064691
:1056EC0029D19AF8000018B1F8238DF838300AE067
:1056FC00FF2020700EA8009043465246394658466B
:10570C00019401F0BEF92378022106930EABCDE98A
:10571C0004739DF868310A9A0393099B05F1F00014
:10572C000293589B01930B9B00934B46FDF733FC64
:10573C004FB0BDE8F08F88B901220DF13903009309
:10574C00394658460DF137038DF8372001F05BF9D7
:10575C009DF83730002B18BF022365E0FE23C4E709
:10576C0005F1840B39465846FCF720FE04F07FF80F
:10577C003E2806460FD19AF800000028B4D1FF202D
:10578C0020700EA800904346524639465846019464
:10579C00FCF760FEB7E70028E0D101220DF13903D8
:1057AC00009339460DF1370358468DF83720FCF736
:1057BC0013FE9DF83730002B099B18BF022308BF3E
:1057CC00F8268DF836308DF838609CE705F1A40B7F
:1057DC0039465846FEF7F3FF04F049F83E280646D2
:1057EC0010D19AF8000000287FF47EAFFF202070C3
:1057FC000EA8009043465246394658460194FFF78E
:10580C0032F880E70028A9D101220DF13903009369
:10581C0039460DF1370358468DF83720FEF7E5FF72
:10582C009DF83730002B099B08BF0123C7E705F112
:10583C00C80B3946584602F09DFF04F018F83E2874
:10584C00064610D19AF8000000287FF44DAFFF20D7
:10585C0020700EA800904346524639465846019493
:10586C0002F0DCFF4FE700287FF478AF01220DF146
:10587C0039030093394658460DF137038DF837201C
:10588C0002F08EFF64E705F1540B39465846FEF7DB
:10589C00F7FD03F0ECFF3E28064610D19AF8000005
:1058AC0000287FF421AFFF2020700EA80090434603
:1058BC005246394658460194FEF736FE23E7002837
:1058CC007FF44CAF01220DF1390300933946584651
:1058DC000DF137038DF83720FEF7E8FD38E78DF82A
:1058EC00380010E770B5044644300D46164600F0FB
:1058FC0068FF40B133462A4604F1F0000221BDE8AE
:10590C007040FDF726BA70BD38B500F1440420464E
:10591C001D4600F056FF28B129462046BDE8384008
:10592C0000F04DBF38BD70B500F144040B2120468A
:10593C00059EBDF8105001F011F8062201463046C4
:10594C000AF06CF928B929462046BDE8704000F0F1
:10595C0036BF70BD2DE9F04385B00C9F99463B785E
:10596C00BDF83460DDF838808DF80F30092900F26D
:10597C008B80DFE801F005253E708989898989577C
:10598C0000F144054946284601F05CF8B6B13C7874
:10599C00444320460AF00FF83246C8F80000494646
:1059AC0000900DF10F03284601F02DF89DF80F30F3
:1059BC003B700F9B1C6005B0BDE8F0830224E8E748
:1059CC0000F1840549462846FCF725FD7EB13C785C
:1059DC004443204609F0EFFF3246C8F80000494620
:1059EC0000900DF10F032846FCF7F6FCDEE70224CD
:1059FC00EFE700F1A40549462846FEF715FF7EB1F6
:105A0C003C784443204609F0D6FF3246C8F80000E3
:105A1C00494600900DF10F032846FEF7E6FEC5E758
:105A2C000224EFE700F1C8054946284602F0D7FEEC
:105A3C007EB13C784443204609F0BDFF3246C8F89D
:105A4C000000494600900DF10F03284602F0A8FE15
:105A5C00ACE70224EFE700F1540549462846FEF76F
:105A6C0044FD7EB13C784443204609F0A4FF324605
:105A7C00C8F80000494600900DF10F032846FEF7C8
:105A8C0015FD93E70224EFE700248DF80F40C8F8CA
:105A9C0000408BE710B59DF810401146C83002F05D
:105AAC0095FD24B10421BDE8104002F007BD05218D
:105ABC00F9E710B59DF818401146C83002F086FD84
:105ACC0024B10421BDE8104002F0F8BC0521F9E72F
